:020000040800F2
:1000000000500020010200084902000849020008CF
:1000100049020008490200084902000800000000E7
:10002000000000000000000000000000490200087D
:1000300049020008000000004902000849020008C7
:100040004902000849020008490200084902000864
:100050004902000849020008490200084902000854
:100060004902000849020008490200084902000844
:100070004902000849020008490200084902000834
:100080004902000849020008490200084902000824
:100090004902000849020008490200084902000814
:1000A0004902000849020008490200084902000804
:1000B00049020008490200084902000849020008F4
:1000C00049020008490200084902000849020008E4
:1000D00049020008490200084902000849020008D4
:1000E0004902000849020008490200080000000017
:1000F0000000000000000000000000000000000000
:0C01000000000000000000005FF808F1A3
:10010C0010B5054C237833B9044B13B10448AFF345
:10011C0000800123237010BD0000002000000000AF
:10012C009402000808B5034B1BB103490348AFF315
:10013C00008008BD000000000400002094020008AC
:10014C00044B586000229A60024B1B6813F4803FEA
:10015C00FAD0704710E000E008B50E4A936943F0FE
:10016C003D0393610C4B4FF000725A600B4B012214
:10017C001A600B4B20221A60094D02232B61094C8B
:10018C002046FFF7DDFF4FF400332B612046FFF7CD
:10019C00D7FFF1E7001002400000014010E000E042
:1001AC000008014020A107000F4B1A6842F0010221
:1001BC001A6059680D4A0A405A601A6822F0847213
:1001CC0022F480321A601A6822F480221A605A686B
:1001DC0022F4FE025A604FF41F029A60044B4FF057
:1001EC0000629A60704700BF001002400000FFF8E8
:1001FC0000ED00E0002103E00B4B5B584350043151
:10020C000A480B4B42189A42F6D30A4A02E00023E2
:10021C0042F8043B084B9A42F9D3FFF7C5FF00F0B4
:10022C000FF8FFF799FF7047B40200080000002098
:10023C0000000020000000201C000020FEE7000051
:10024C0070B500250C4E0D4CA41BA410A54209D171
:10025C0000F01AF800250A4E0A4CA41BA410A54263
:10026C0005D170BD56F8253098470135EEE756F8A4
:10027C00253098470135F2E7AC020008AC020008C3
:10028C00AC020008B0020008F8B500BFF8BC08BC0E
:10029C009E467047F8B500BFF8BC08BC9E46704738
:0402AC003101000814
:0402B0000D01000834
:0400000508000201EC
:00000001FF
